{
  "_format": "hh-sol-artifact-1",
  "contractName": "PrivacyAssetTrading",
  "sourceName": "contracts/PrivacyAssetTrading.sol",
  "abi": [
    {
      "inputs": [],
      "stateMutability": "nonpayable",
      "type": "constructor"
    },
    {
      "anonymous": false,
      "inputs": [
        {
          "indexed": false,
          "internalType": "string",
          "name": "pair",
          "type": "string"
        }
      ],
      "name": "MarketPriceUpdated",
      "type": "event"
    },
    {
      "anonymous": false,
      "inputs": [
        {
          "indexed": true,
          "internalType": "uint256",
          "name": "orderId",
          "type": "uint256"
        },
        {
          "indexed": true,
          "internalType": "address",
          "name": "trader",
          "type": "address"
        },
        {
          "indexed": false,
          "internalType": "string",
          "name": "pair",
          "type": "string"
        },
        {
          "indexed": false,
          "internalType": "bool",
          "name": "isLong",
          "type": "bool"
        }
      ],
      "name": "OrderPlaced",
      "type": "event"
    },
    {
      "anonymous": false,
      "inputs": [
        {
          "indexed": true,
          "internalType": "address",
          "name": "trader",
          "type": "address"
        },
        {
          "indexed": false,
          "internalType": "string",
          "name": "pair",
          "type": "string"
        },
        {
          "indexed": false,
          "internalType": "bool",
          "name": "isLong",
          "type": "bool"
        }
      ],
      "name": "QuickTradeExecuted",
      "type": "event"
    },
    {
      "anonymous": false,
      "inputs": [
        {
          "indexed": true,
          "internalType": "uint256",
          "name": "tradeId",
          "type": "uint256"
        },
        {
          "indexed": true,
          "internalType": "address",
          "name": "buyer",
          "type": "address"
        },
        {
          "indexed": true,
          "internalType": "address",
          "name": "seller",
          "type": "address"
        },
        {
          "indexed": false,
          "internalType": "string",
          "name": "pair",
          "type": "string"
        }
      ],
      "name": "TradeExecuted",
      "type": "event"
    },
    {
      "inputs": [
        {
          "internalType": "uint256",
          "name": "orderId",
          "type": "uint256"
        }
      ],
      "name": "cancelOrder",
      "outputs": [],
      "stateMutability": "nonpayable",
      "type": "function"
    },
    {
      "inputs": [],
      "name": "getCurrentOrderCount",
      "outputs": [
        {
          "internalType": "uint256",
          "name": "",
          "type": "uint256"
        }
      ],
      "stateMutability": "view",
      "type": "function"
    },
    {
      "inputs": [],
      "name": "getCurrentTradeCount",
      "outputs": [
        {
          "internalType": "uint256",
          "name": "",
          "type": "uint256"
        }
      ],
      "stateMutability": "view",
      "type": "function"
    },
    {
      "inputs": [
        {
          "internalType": "string",
          "name": "pair",
          "type": "string"
        }
      ],
      "name": "getMarketPrice",
      "outputs": [
        {
          "internalType": "uint256",
          "name": "",
          "type": "uint256"
        }
      ],
      "stateMutability": "view",
      "type": "function"
    },
    {
      "inputs": [
        {
          "internalType": "uint256",
          "name": "orderId",
          "type": "uint256"
        }
      ],
      "name": "getOrderData",
      "outputs": [
        {
          "internalType": "uint256",
          "name": "amount",
          "type": "uint256"
        },
        {
          "internalType": "uint256",
          "name": "price",
          "type": "uint256"
        }
      ],
      "stateMutability": "view",
      "type": "function"
    },
    {
      "inputs": [
        {
          "internalType": "uint256",
          "name": "orderId",
          "type": "uint256"
        }
      ],
      "name": "getOrderInfo",
      "outputs": [
        {
          "internalType": "address",
          "name": "trader",
          "type": "address"
        },
        {
          "internalType": "string",
          "name": "pair",
          "type": "string"
        },
        {
          "internalType": "bool",
          "name": "isLong",
          "type": "bool"
        },
        {
          "internalType": "bool",
          "name": "isActive",
          "type": "bool"
        },
        {
          "internalType": "bool",
          "name": "isExecuted",
          "type": "bool"
        },
        {
          "internalType": "uint256",
          "name": "timestamp",
          "type": "uint256"
        }
      ],
      "stateMutability": "view",
      "type": "function"
    },
    {
      "inputs": [
        {
          "internalType": "address",
          "name": "trader",
          "type": "address"
        },
        {
          "internalType": "string",
          "name": "pair",
          "type": "string"
        }
      ],
      "name": "getPortfolioBalance",
      "outputs": [
        {
          "internalType": "uint256",
          "name": "",
          "type": "uint256"
        }
      ],
      "stateMutability": "view",
      "type": "function"
    },
    {
      "inputs": [
        {
          "internalType": "string",
          "name": "",
          "type": "string"
        }
      ],
      "name": "marketPrices",
      "outputs": [
        {
          "internalType": "uint256",
          "name": "",
          "type": "uint256"
        }
      ],
      "stateMutability": "view",
      "type": "function"
    },
    {
      "inputs": [],
      "name": "orderCounter",
      "outputs": [
        {
          "internalType": "uint256",
          "name": "",
          "type": "uint256"
        }
      ],
      "stateMutability": "view",
      "type": "function"
    },
    {
      "inputs": [
        {
          "internalType": "uint256",
          "name": "",
          "type": "uint256"
        }
      ],
      "name": "orders",
      "outputs": [
        {
          "internalType": "uint256",
          "name": "orderId",
          "type": "uint256"
        },
        {
          "internalType": "address",
          "name": "trader",
          "type": "address"
        },
        {
          "internalType": "string",
          "name": "pair",
          "type": "string"
        },
        {
          "internalType": "bool",
          "name": "isLong",
          "type": "bool"
        },
        {
          "internalType": "uint256",
          "name": "amount",
          "type": "uint256"
        },
        {
          "internalType": "uint256",
          "name": "price",
          "type": "uint256"
        },
        {
          "internalType": "bool",
          "name": "isActive",
          "type": "bool"
        },
        {
          "internalType": "uint256",
          "name": "timestamp",
          "type": "uint256"
        },
        {
          "internalType": "bool",
          "name": "isExecuted",
          "type": "bool"
        }
      ],
      "stateMutability": "view",
      "type": "function"
    },
    {
      "inputs": [],
      "name": "owner",
      "outputs": [
        {
          "internalType": "address",
          "name": "",
          "type": "address"
        }
      ],
      "stateMutability": "view",
      "type": "function"
    },
    {
      "inputs": [
        {
          "internalType": "string",
          "name": "pair",
          "type": "string"
        },
        {
          "internalType": "bool",
          "name": "isLong",
          "type": "bool"
        },
        {
          "internalType": "uint32",
          "name": "amount",
          "type": "uint32"
        },
        {
          "internalType": "uint32",
          "name": "price",
          "type": "uint32"
        }
      ],
      "name": "placeOrder",
      "outputs": [
        {
          "internalType": "uint256",
          "name": "",
          "type": "uint256"
        }
      ],
      "stateMutability": "nonpayable",
      "type": "function"
    },
    {
      "inputs": [
        {
          "internalType": "address",
          "name": "",
          "type": "address"
        },
        {
          "internalType": "string",
          "name": "",
          "type": "string"
        }
      ],
      "name": "portfolios",
      "outputs": [
        {
          "internalType": "uint256",
          "name": "balance",
          "type": "uint256"
        },
        {
          "internalType": "bool",
          "name": "exists",
          "type": "bool"
        }
      ],
      "stateMutability": "view",
      "type": "function"
    },
    {
      "inputs": [
        {
          "internalType": "string",
          "name": "pair",
          "type": "string"
        },
        {
          "internalType": "uint32",
          "name": "amount",
          "type": "uint32"
        }
      ],
      "name": "quickBuy",
      "outputs": [
        {
          "internalType": "uint256",
          "name": "",
          "type": "uint256"
        }
      ],
      "stateMutability": "nonpayable",
      "type": "function"
    },
    {
      "inputs": [
        {
          "internalType": "string",
          "name": "pair",
          "type": "string"
        },
        {
          "internalType": "uint32",
          "name": "amount",
          "type": "uint32"
        }
      ],
      "name": "quickSell",
      "outputs": [
        {
          "internalType": "uint256",
          "name": "",
          "type": "uint256"
        }
      ],
      "stateMutability": "nonpayable",
      "type": "function"
    },
    {
      "inputs": [],
      "name": "tradeCounter",
      "outputs": [
        {
          "internalType": "uint256",
          "name": "",
          "type": "uint256"
        }
      ],
      "stateMutability": "view",
      "type": "function"
    },
    {
      "inputs": [
        {
          "internalType": "uint256",
          "name": "",
          "type": "uint256"
        }
      ],
      "name": "trades",
      "outputs": [
        {
          "internalType": "uint256",
          "name": "tradeId",
          "type": "uint256"
        },
        {
          "internalType": "address",
          "name": "buyer",
          "type": "address"
        },
        {
          "internalType": "address",
          "name": "seller",
          "type": "address"
        },
        {
          "internalType": "string",
          "name": "pair",
          "type": "string"
        },
        {
          "internalType": "uint256",
          "name": "amount",
          "type": "uint256"
        },
        {
          "internalType": "uint256",
          "name": "price",
          "type": "uint256"
        },
        {
          "internalType": "uint256",
          "name": "timestamp",
          "type": "uint256"
        }
      ],
      "stateMutability": "view",
      "type": "function"
    },
    {
      "inputs": [
        {
          "internalType": "string",
          "name": "pair",
          "type": "string"
        },
        {
          "internalType": "uint32",
          "name": "newPrice",
          "type": "uint32"
        }
      ],
      "name": "updateMarketPrice",
      "outputs": [],
      "stateMutability": "nonpayable",
      "type": "function"
    }
  ],
  "bytecode": "0x608060405234801561000f575f80fd5b505f80546001600160a01b031916331790556001808055600255610031610036565b6100bf565b613a9860066040516100559066084a8865e8aa8960cb1b815260070190565b90815260405190819003602001812091909155671155120bd554d11560c21b81526109c4906006906008019081526040519081900360200181209190915567109510cbd554d11560c21b815263023c34609060069060080190815260405190819003602001902055565b61199a806100cc5f395ff3fe608060405234801561000f575f80fd5b506004361061012f575f3560e01c80639f5c3bcd116100ad578063c7544fd61161007d578063d311636b11610063578063d311636b146102f9578063d9ded3be1461031e578063e2a5b9bd14610331575f80fd5b8063c7544fd6146102bb578063ced40818146102e6575f80fd5b80639f5c3bcd14610264578063a85c38ef14610277578063b789bf521461029f578063bd9616d4146102a8575f80fd5b8063514fcac71161010257806381908cab116100e857806381908cab1461020a5780638da5cb5b1461021257806395178c681461023c575f80fd5b8063514fcac7146101ee578063660d15b514610201575f80fd5b80631b9479f1146101335780631e6c598e146101925780633398fa5c146101b85780634bcaa3be146101cd575b5f80fd5b61017861014136600461143c565b600460209081525f928352604090922081518083018401805192815290840192909301919091209152805460019091015460ff1682565b604080519283529015156020830152015b60405180910390f35b6101a56101a0366004611494565b610339565b60405161018997969594939291906114f8565b6101cb6101c6366004611560565b610407565b005b6101e06101db3660046115ab565b6104ba565b604051908152602001610189565b6101cb6101fc366004611494565b61071d565b6101e060025481565b6101e06107f9565b5f54610224906001600160a01b031681565b6040516001600160a01b039091168152602001610189565b61024f61024a366004611494565b61080d565b60408051928352602083019190915201610189565b6101e0610272366004611560565b610892565b61028a610285366004611494565b6109c2565b6040516101899998979695949392919061161c565b6101e060015481565b6101e06102b6366004611560565b610aa2565b6101e06102c936600461167b565b805160208183018101805160068252928201919093012091525481565b6101e06102f436600461143c565b610ba7565b61030c610307366004611494565b610c43565b604051610189969594939291906116b5565b6101e061032c36600461167b565b610d37565b6101e0610d5e565b60056020525f9081526040902080546001820154600283015460038401805493946001600160a01b03938416949390921692610374906116fb565b80601f01602080910402602001604051908101604052809291908181526020018280546103a0906116fb565b80156103eb5780601f106103c2576101008083540402835291602001916103eb565b820191905f5260205f20905b8154815290600101906020018083116103ce57829003601f168201915b5050505050908060040154908060050154908060060154905087565b5f546001600160a01b031633146104565760405162461bcd60e51b815260206004820152600e60248201526d139bdd08185d5d1a1bdc9a5e995960921b60448201526064015b60405180910390fd5b8063ffffffff1660068360405161046d9190611733565b9081526020016040518091039020819055507fccf63c1ae962c4f70115ad2e60418b23648e3eda1749d8577828adb4a04049c4826040516104ae919061174e565b60405180910390a15050565b5f808363ffffffff16116105105760405162461bcd60e51b815260206004820152601760248201527f416d6f756e74206d75737420626520706f736974697665000000000000000000604482015260640161044d565b5f8263ffffffff16116105655760405162461bcd60e51b815260206004820152601660248201527f5072696365206d75737420626520706f73697469766500000000000000000000604482015260640161044d565b5f8551116105a45760405162461bcd60e51b815260206004820152600c60248201526b24b73b30b634b2103830b4b960a11b604482015260640161044d565b6040805161012081018252600180548083523360208085019182528486018b81528a1515606087015263ffffffff8a81166080880152891660a087015260c086018590524260e08701525f6101008701819052938452600390915294909120835181559051918101805473ffffffffffffffffffffffffffffffffffffffff19166001600160a01b0390931692909217909155915190918291600282019061064c90826117b3565b50606082015160038201805491151560ff199283161790556080830151600483015560a0830151600583015560c083015160068301805491151591831691909117905560e083015160078301556101009092015160089091018054911515919092161790556001546040513391907f41bee9605c95f04a6350717811ee1487211e2265d0996addcbc99efec1b29317906106e9908a908a9061186f565b60405180910390a36106fc600154610d6e565b600180549081905f61070d836118a6565b9091555090979650505050505050565b5f81815260036020526040902060018101546001600160a01b031633146107865760405162461bcd60e51b815260206004820152600e60248201527f4e6f7420796f7572206f72646572000000000000000000000000000000000000604482015260640161044d565b600681015460ff16801561079f5750600881015460ff16155b6107eb5760405162461bcd60e51b815260206004820152600d60248201527f43616e6e6f742063616e63656c00000000000000000000000000000000000000604482015260640161044d565b600601805460ff1916905550565b5f6001805461080891906118be565b905090565b5f81815260036020526040812060018101548291906001600160a01b031633148061084157505f546001600160a01b031633145b61087e5760405162461bcd60e51b815260206004820152600e60248201526d139bdd08185d5d1a1bdc9a5e995960921b604482015260640161044d565b806004015481600501549250925050915091565b5f808263ffffffff16116108e85760405162461bcd60e51b815260206004820152601760248201527f416d6f756e74206d75737420626520706f736974697665000000000000000000604482015260640161044d565b5f8351116109275760405162461bcd60e51b815260206004820152600c60248201526b24b73b30b634b2103830b4b960a11b604482015260640161044d565b5f6006846040516109389190611733565b908152602001604051809103902054905061095d338560018663ffffffff1685610d99565b336001600160a01b03167f11376d55d5ef08238686cdf3c144de020503676d28f83ec9d94b5d827107edbb85600160405161099992919061186f565b60405180910390a2600280549081905f6109b2836118a6565b9091555090925050505b92915050565b60036020525f908152604090208054600182015460028301805492936001600160a01b03909216926109f3906116fb565b80601f0160208091040260200160405190810160405280929190818152602001828054610a1f906116fb565b8015610a6a5780601f10610a4157610100808354040283529160200191610a6a565b820191905f5260205f20905b815481529060010190602001808311610a4d57829003601f168201915b5050505060038301546004840154600585015460068601546007870154600890970154959660ff948516969395509193908116921689565b5f808263ffffffff1611610af85760405162461bcd60e51b815260206004820152601760248201527f416d6f756e74206d75737420626520706f736974697665000000000000000000604482015260640161044d565b5f835111610b375760405162461bcd60e51b815260206004820152600c60248201526b24b73b30b634b2103830b4b960a11b604482015260640161044d565b5f600684604051610b489190611733565b9081526020016040518091039020549050610b6c33855f8663ffffffff1685610d99565b336001600160a01b03167f11376d55d5ef08238686cdf3c144de020503676d28f83ec9d94b5d827107edbb855f60405161099992919061186f565b5f336001600160a01b0384161480610bc857505f546001600160a01b031633145b610c055760405162461bcd60e51b815260206004820152600e60248201526d139bdd08185d5d1a1bdc9a5e995960921b604482015260640161044d565b6001600160a01b0383165f90815260046020526040908190209051610c2b908490611733565b90815260405190819003602001902054905092915050565b5f8181526003602081905260408220600181015491810154600682015460088301546007840154600285018054606097899788978897889792966001600160a01b03909416959460ff9283169491831693909216918590610ca3906116fb565b80601f0160208091040260200160405190810160405280929190818152602001828054610ccf906116fb565b8015610d1a5780601f10610cf157610100808354040283529160200191610d1a565b820191905f5260205f20905b815481529060010190602001808311610cfd57829003601f168201915b505050505094509650965096509650965096505091939550919395565b5f600682604051610d489190611733565b9081526020016040518091039020549050919050565b5f600160025461080891906118be565b5f818152600360205260409020610d866002426118d1565b5f03610d9557610d9582610ea0565b5050565b5f6040518060e00160405280600254815260200185610db8575f610dba565b875b6001600160a01b0316815260200185610dd35787610dd5565b5f5b6001600160a01b03908116825260208083018990526040808401889052606080850188905242608090950194909452600280545f90815260058452829020865181559286015160018401805491861673ffffffffffffffffffffffffffffffffffffffff19928316179055918601519083018054919094169116179091559082015191925082916003820190610e6b90826117b3565b506080820151600482015560a0820151600582015560c090910151600690910155610e988686858761123b565b505050505050565b5f818152600360205260409020600681015460ff16610f015760405162461bcd60e51b815260206004820152601060248201527f4f72646572206e6f742061637469766500000000000000000000000000000000604482015260640161044d565b6040805160e08101909152600254815260038201545f9190602082019060ff16610f2b575f610f3a565b60018401546001600160a01b03165b6001600160a01b03168152600384015460209091019060ff16610f6a5760018401546001600160a01b0316610f6c565b5f5b6001600160a01b03168152602001836002018054610f89906116fb565b80601f0160208091040260200160405190810160405280929190818152602001828054610fb5906116fb565b80156110005780601f10610fd757610100808354040283529160200191611000565b820191905f5260205f20905b815481529060010190602001808311610fe357829003601f168201915b5050509183525050600484015460208083019190915260058086015460408085019190915242606094850152600280545f90815292845291819020855181559285015160018401805473ffffffffffffffffffffffffffffffffffffffff199081166001600160a01b03938416179091559186015192840180549092169216919091179055908201519192508291600382019061109d90826117b3565b506080820151600482015560a0820151600582015560c090910151600691820155600883018054600160ff199182168117909255918401805490921690915582015460028301805461118d926001600160a01b031691906110fd906116fb565b80601f0160208091040260200160405190810160405280929190818152602001828054611129906116fb565b80156111745780601f1061114b57610100808354040283529160200191611174565b820191905f5260205f20905b81548152906001019060200180831161115757829003601f168201915b505050506004860154600387015490915060ff1661123b565b600382015460ff166111ac5760018201546001600160a01b03166111ae565b5f5b60038301546001600160a01b03919091169060ff166111cd575f6111dc565b60018301546001600160a01b03165b6001600160a01b03166002547ff73f5ab19a61ba54d708a48deffd5928c9dc39f3bf6260873115fa0a35e42baf8560020160405161121a91906118f0565b60405180910390a460028054905f611231836118a6565b9190505550505050565b6001600160a01b0384165f90815260046020526040908190209051611261908590611733565b9081526040519081900360200190206001015460ff166112f45760405180604001604052808381526020016001151581525060045f866001600160a01b03166001600160a01b031681526020019081526020015f20846040516112c49190611733565b90815260405160209181900382019020825181559101516001909101805460ff1916911515919091179055611399565b801561134c576001600160a01b0384165f90815260046020526040908190209051839190611323908690611733565b90815260200160405180910390205f015f828254611341919061197a565b909155506113999050565b6001600160a01b0384165f90815260046020526040908190209051839190611375908690611733565b90815260200160405180910390205f015f82825461139391906118be565b90915550505b50505050565b634e487b7160e01b5f52604160045260245ffd5b5f82601f8301126113c2575f80fd5b813567ffffffffffffffff808211156113dd576113dd61139f565b604051601f8301601f19908116603f011681019082821181831017156114055761140561139f565b8160405283815286602085880101111561141d575f80fd5b836020870160208301375f602085830101528094505050505092915050565b5f806040838503121561144d575f80fd5b82356001600160a01b0381168114611463575f80fd5b9150602083013567ffffffffffffffff81111561147e575f80fd5b61148a858286016113b3565b9150509250929050565b5f602082840312156114a4575f80fd5b5035919050565b5f5b838110156114c55781810151838201526020016114ad565b50505f910152565b5f81518084526114e48160208601602086016114ab565b601f01601f19169290920160200192915050565b8781525f6001600160a01b03808916602084015280881660408401525060e0606083015261152960e08301876114cd565b60808301959095525060a081019290925260c090910152949350505050565b803563ffffffff8116811461155b575f80fd5b919050565b5f8060408385031215611571575f80fd5b823567ffffffffffffffff811115611587575f80fd5b611593858286016113b3565b9250506115a260208401611548565b90509250929050565b5f805f80608085870312156115be575f80fd5b843567ffffffffffffffff8111156115d4575f80fd5b6115e0878288016113b3565b945050602085013580151581146115f5575f80fd5b925061160360408601611548565b915061161160608601611548565b905092959194509250565b5f6101208b83526001600160a01b038b1660208401528060408401526116448184018b6114cd565b98151560608401525050608081019590955260a085019390935290151560c084015260e08301521515610100909101529392505050565b5f6020828403121561168b575f80fd5b813567ffffffffffffffff8111156116a1575f80fd5b6116ad848285016113b3565b949350505050565b6001600160a01b038716815260c060208201525f6116d660c08301886114cd565b9515156040830152509215156060840152901515608083015260a09091015292915050565b600181811c9082168061170f57607f821691505b60208210810361172d57634e487b7160e01b5f52602260045260245ffd5b50919050565b5f82516117448184602087016114ab565b9190910192915050565b602081525f61176060208301846114cd565b9392505050565b601f8211156117ae57805f5260205f20601f840160051c8101602085101561178c5750805b601f840160051c820191505b818110156117ab575f8155600101611798565b50505b505050565b815167ffffffffffffffff8111156117cd576117cd61139f565b6117e1816117db84546116fb565b84611767565b602080601f831160018114611814575f84156117fd5750858301515b5f19600386901b1c1916600185901b178555610e98565b5f85815260208120601f198616915b8281101561184257888601518255948401946001909101908401611823565b508582101561185f57878501515f19600388901b60f8161c191681555b5050505050600190811b01905550565b604081525f61188160408301856114cd565b905082151560208301529392505050565b634e487b7160e01b5f52601160045260245ffd5b5f600182016118b7576118b7611892565b5060010190565b818103818111156109bc576109bc611892565b5f826118eb57634e487b7160e01b5f52601260045260245ffd5b500690565b5f60208083525f8454611902816116fb565b806020870152604060018084165f8114611923576001811461193f5761196c565b60ff19851660408a0152604084151560051b8a0101955061196c565b895f5260205f205f5b858110156119635781548b8201860152908301908801611948565b8a016040019650505b509398975050505050505050565b808201808211156109bc576109bc61189256fea164736f6c6343000818000a",
  "linkReferences": {},
  "deployedLinkReferences": {}
}