{
  "_format": "hh-sol-artifact-1",
  "contractName": "RealPrivacyTrading",
  "sourceName": "contracts/RealPrivacyTrading.sol",
  "abi": [
    {
      "inputs": [],
      "stateMutability": "nonpayable",
      "type": "constructor"
    },
    {
      "anonymous": false,
      "inputs": [
        {
          "indexed": true,
          "internalType": "uint256",
          "name": "orderId",
          "type": "uint256"
        },
        {
          "indexed": true,
          "internalType": "address",
          "name": "trader",
          "type": "address"
        },
        {
          "indexed": false,
          "internalType": "string",
          "name": "pair",
          "type": "string"
        },
        {
          "indexed": false,
          "internalType": "bool",
          "name": "isLong",
          "type": "bool"
        }
      ],
      "name": "OrderPlaced",
      "type": "event"
    },
    {
      "anonymous": false,
      "inputs": [
        {
          "indexed": true,
          "internalType": "address",
          "name": "trader",
          "type": "address"
        },
        {
          "indexed": false,
          "internalType": "string",
          "name": "pair",
          "type": "string"
        },
        {
          "indexed": false,
          "internalType": "bool",
          "name": "isLong",
          "type": "bool"
        }
      ],
      "name": "QuickTradeExecuted",
      "type": "event"
    },
    {
      "anonymous": false,
      "inputs": [
        {
          "indexed": true,
          "internalType": "uint256",
          "name": "tradeId",
          "type": "uint256"
        },
        {
          "indexed": true,
          "internalType": "address",
          "name": "buyer",
          "type": "address"
        },
        {
          "indexed": true,
          "internalType": "address",
          "name": "seller",
          "type": "address"
        },
        {
          "indexed": false,
          "internalType": "string",
          "name": "pair",
          "type": "string"
        }
      ],
      "name": "TradeExecuted",
      "type": "event"
    },
    {
      "inputs": [],
      "name": "currentRound",
      "outputs": [
        {
          "internalType": "uint256",
          "name": "",
          "type": "uint256"
        }
      ],
      "stateMutability": "view",
      "type": "function"
    },
    {
      "inputs": [],
      "name": "getCurrentOrderCount",
      "outputs": [
        {
          "internalType": "uint256",
          "name": "",
          "type": "uint256"
        }
      ],
      "stateMutability": "view",
      "type": "function"
    },
    {
      "inputs": [],
      "name": "getCurrentRoundInfo",
      "outputs": [
        {
          "internalType": "uint256",
          "name": "round",
          "type": "uint256"
        },
        {
          "internalType": "uint256",
          "name": "orderCount",
          "type": "uint256"
        },
        {
          "internalType": "uint256",
          "name": "tradeCount",
          "type": "uint256"
        },
        {
          "internalType": "uint256",
          "name": "lastTime",
          "type": "uint256"
        }
      ],
      "stateMutability": "view",
      "type": "function"
    },
    {
      "inputs": [],
      "name": "getCurrentTradeCount",
      "outputs": [
        {
          "internalType": "uint256",
          "name": "",
          "type": "uint256"
        }
      ],
      "stateMutability": "view",
      "type": "function"
    },
    {
      "inputs": [
        {
          "internalType": "uint256",
          "name": "orderId",
          "type": "uint256"
        }
      ],
      "name": "getOrderInfo",
      "outputs": [
        {
          "internalType": "address",
          "name": "trader",
          "type": "address"
        },
        {
          "internalType": "string",
          "name": "pair",
          "type": "string"
        },
        {
          "internalType": "bool",
          "name": "isLong",
          "type": "bool"
        },
        {
          "internalType": "bool",
          "name": "hasExecuted",
          "type": "bool"
        },
        {
          "internalType": "uint256",
          "name": "timestamp",
          "type": "uint256"
        }
      ],
      "stateMutability": "view",
      "type": "function"
    },
    {
      "inputs": [
        {
          "internalType": "address",
          "name": "trader",
          "type": "address"
        },
        {
          "internalType": "string",
          "name": "pair",
          "type": "string"
        }
      ],
      "name": "getPortfolioBalance",
      "outputs": [
        {
          "internalType": "uint256",
          "name": "",
          "type": "uint256"
        }
      ],
      "stateMutability": "view",
      "type": "function"
    },
    {
      "inputs": [
        {
          "internalType": "uint256",
          "name": "tradeId",
          "type": "uint256"
        }
      ],
      "name": "getTradeInfo",
      "outputs": [
        {
          "internalType": "address",
          "name": "buyer",
          "type": "address"
        },
        {
          "internalType": "address",
          "name": "seller",
          "type": "address"
        },
        {
          "internalType": "string",
          "name": "pair",
          "type": "string"
        },
        {
          "internalType": "bool",
          "name": "isConfirmed",
          "type": "bool"
        },
        {
          "internalType": "uint256",
          "name": "timestamp",
          "type": "uint256"
        }
      ],
      "stateMutability": "view",
      "type": "function"
    },
    {
      "inputs": [],
      "name": "lastTradeTime",
      "outputs": [
        {
          "internalType": "uint256",
          "name": "",
          "type": "uint256"
        }
      ],
      "stateMutability": "view",
      "type": "function"
    },
    {
      "inputs": [],
      "name": "orderCounter",
      "outputs": [
        {
          "internalType": "uint256",
          "name": "",
          "type": "uint256"
        }
      ],
      "stateMutability": "view",
      "type": "function"
    },
    {
      "inputs": [
        {
          "internalType": "uint256",
          "name": "",
          "type": "uint256"
        }
      ],
      "name": "orders",
      "outputs": [
        {
          "internalType": "uint256",
          "name": "orderId",
          "type": "uint256"
        },
        {
          "internalType": "address",
          "name": "trader",
          "type": "address"
        },
        {
          "internalType": "string",
          "name": "pair",
          "type": "string"
        },
        {
          "internalType": "uint256",
          "name": "encryptedAmount",
          "type": "uint256"
        },
        {
          "internalType": "uint256",
          "name": "encryptedPrice",
          "type": "uint256"
        },
        {
          "internalType": "bool",
          "name": "isLong",
          "type": "bool"
        },
        {
          "internalType": "bool",
          "name": "hasExecuted",
          "type": "bool"
        },
        {
          "internalType": "uint256",
          "name": "timestamp",
          "type": "uint256"
        }
      ],
      "stateMutability": "view",
      "type": "function"
    },
    {
      "inputs": [],
      "name": "owner",
      "outputs": [
        {
          "internalType": "address",
          "name": "",
          "type": "address"
        }
      ],
      "stateMutability": "view",
      "type": "function"
    },
    {
      "inputs": [
        {
          "internalType": "string",
          "name": "pair",
          "type": "string"
        },
        {
          "internalType": "bool",
          "name": "isLong",
          "type": "bool"
        },
        {
          "internalType": "uint32",
          "name": "amount",
          "type": "uint32"
        },
        {
          "internalType": "uint32",
          "name": "price",
          "type": "uint32"
        }
      ],
      "name": "placeOrder",
      "outputs": [
        {
          "internalType": "uint256",
          "name": "",
          "type": "uint256"
        }
      ],
      "stateMutability": "nonpayable",
      "type": "function"
    },
    {
      "inputs": [
        {
          "internalType": "address",
          "name": "",
          "type": "address"
        },
        {
          "internalType": "string",
          "name": "",
          "type": "string"
        }
      ],
      "name": "portfolios",
      "outputs": [
        {
          "internalType": "uint256",
          "name": "",
          "type": "uint256"
        }
      ],
      "stateMutability": "view",
      "type": "function"
    },
    {
      "inputs": [
        {
          "internalType": "string",
          "name": "pair",
          "type": "string"
        },
        {
          "internalType": "uint32",
          "name": "amount",
          "type": "uint32"
        }
      ],
      "name": "quickBuy",
      "outputs": [
        {
          "internalType": "uint256",
          "name": "",
          "type": "uint256"
        }
      ],
      "stateMutability": "nonpayable",
      "type": "function"
    },
    {
      "inputs": [
        {
          "internalType": "string",
          "name": "pair",
          "type": "string"
        },
        {
          "internalType": "uint32",
          "name": "amount",
          "type": "uint32"
        }
      ],
      "name": "quickSell",
      "outputs": [
        {
          "internalType": "uint256",
          "name": "",
          "type": "uint256"
        }
      ],
      "stateMutability": "nonpayable",
      "type": "function"
    },
    {
      "inputs": [],
      "name": "tradeCounter",
      "outputs": [
        {
          "internalType": "uint256",
          "name": "",
          "type": "uint256"
        }
      ],
      "stateMutability": "view",
      "type": "function"
    },
    {
      "inputs": [
        {
          "internalType": "uint256",
          "name": "",
          "type": "uint256"
        }
      ],
      "name": "trades",
      "outputs": [
        {
          "internalType": "uint256",
          "name": "tradeId",
          "type": "uint256"
        },
        {
          "internalType": "address",
          "name": "buyer",
          "type": "address"
        },
        {
          "internalType": "address",
          "name": "seller",
          "type": "address"
        },
        {
          "internalType": "string",
          "name": "pair",
          "type": "string"
        },
        {
          "internalType": "uint256",
          "name": "encryptedVolume",
          "type": "uint256"
        },
        {
          "internalType": "uint256",
          "name": "timestamp",
          "type": "uint256"
        },
        {
          "internalType": "bool",
          "name": "isConfirmed",
          "type": "bool"
        }
      ],
      "stateMutability": "view",
      "type": "function"
    },
    {
      "inputs": [],
      "name": "updateRound",
      "outputs": [],
      "stateMutability": "nonpayable",
      "type": "function"
    }
  ],
  "bytecode": "0x608060405234801561000f575f80fd5b505f80546001600160a01b0319163317905560018080554260025560068190556007556117c48061003f5f395ff3fe608060405234801561000f575f80fd5b506004361061012f575f3560e01c80639f5c3bcd116100ad578063ced408181161007d578063d5eee8b611610063578063d5eee8b6146102d7578063e2a5b9bd146102e0578063eadf6258146102e8575f80fd5b8063ced40818146102a0578063d311636b146102b3575f80fd5b80639f5c3bcd1461024a578063a85c38ef1461025d578063b789bf5214610284578063bd9616d41461028d575f80fd5b8063660d15b51161010257806381908cab116100e857806381908cab1461020f5780638a19c8bc146102175780638da5cb5b14610220575f80fd5b8063660d15b5146101de578063747dff42146101e7575f80fd5b80631b9479f1146101335780631e6c598e1461018157806336c67897146101a75780634bcaa3be146101cb575b5f80fd5b61016e610141366004611213565b600560209081525f9283526040909220815180830184018051928152908401929093019190912091525481565b6040519081526020015b60405180910390f35b61019461018f36600461126b565b6102f2565b60405161017897969594939291906112cf565b6101ba6101b536600461126b565b6103c5565b604051610178959493929190611321565b61016e6101d9366004611378565b6104ab565b61016e60075481565b6101ef6106e2565b604080519485526020850193909352918301526060820152608001610178565b61016e610718565b61016e60015481565b5f54610232906001600160a01b031681565b6040516001600160a01b039091168152602001610178565b61016e6102583660046113e9565b61072d565b61027061026b36600461126b565b610937565b604051610178989796959493929190611434565b61016e60065481565b61016e61029b3660046113e9565b610a0f565b61016e6102ae366004611213565b610c45565b6102c66102c136600461126b565b610c81565b60405161017895949392919061148a565b61016e60025481565b61016e610d67565b6102f0610d77565b005b60046020525f9081526040902080546001820154600283015460038401805493946001600160a01b0393841694939092169261032d906114c8565b80601f0160208091040260200160405190810160405280929190818152602001828054610359906114c8565b80156103a45780601f1061037b576101008083540402835291602001916103a4565b820191905f5260205f20905b81548152906001019060200180831161038757829003601f168201915b50505050600483015460058401546006909401549293909290915060ff1687565b5f818152600460205260408120600181015460028201546006830154600584015460038501805487966060968896879692956001600160a01b03928316959290911693919260ff16918390610419906114c8565b80601f0160208091040260200160405190810160405280929190818152602001828054610445906114c8565b80156104905780601f1061046757610100808354040283529160200191610490565b820191905f5260205f20905b81548152906001019060200180831161047357829003601f168201915b50505050509250955095509550955095505091939590929450565b5f808363ffffffff16116105065760405162461bcd60e51b815260206004820152601760248201527f416d6f756e74206d75737420626520706f73697469766500000000000000000060448201526064015b60405180910390fd5b5f8263ffffffff161161055b5760405162461bcd60e51b815260206004820152601660248201527f5072696365206d75737420626520706f7369746976650000000000000000000060448201526064016104fd565b5f85511161059a5760405162461bcd60e51b815260206004820152600c60248201526b24b73b30b634b2103830b4b960a11b60448201526064016104fd565b60065460408051610100810182528281523360208083019182528284018a815263ffffffff89811660608601528816608085015289151560a08501525f60c085018190524260e086015286815260039092529390208251815590516001820180546001600160a01b0319166001600160a01b039092169190911790559151909190600282019061062a908261154c565b50606082015160038201556080820151600482015560a082015160058201805460c085015115156101000261ff00199315159390931661ffff199091161791909117905560e0909101516006918201558054905f61068783611620565b9190505550336001600160a01b0316817f41bee9605c95f04a6350717811ee1487211e2265d0996addcbc99efec1b2931788886040516106c8929190611638565b60405180910390a36106d981610dea565b95945050505050565b5f805f8060015460016006546106f8919061165b565b6001600754610707919061165b565b600254935093509350935090919293565b5f6001600654610728919061165b565b905090565b5f808263ffffffff16116107835760405162461bcd60e51b815260206004820152601760248201527f416d6f756e74206d75737420626520706f73697469766500000000000000000060448201526064016104fd565b5f8351116107c25760405162461bcd60e51b815260206004820152600c60248201526b24b73b30b634b2103830b4b960a11b60448201526064016104fd565b6007546040805160e0810182528281523360208083019182525f838501818152606085018a815263ffffffff8a1660808701524260a0870152600160c0870181905288845260049094529590912084518155925191830180546001600160a01b039384166001600160a01b03199182161790915590516002840180549190931691161790559151909190600382019061085b908261154c565b506080820151600482015560a082015160058083019190915560c0909201516006909101805460ff1916911515919091179055335f908152602091909152604090819020905163ffffffff851691906108b590879061166e565b90815260200160405180910390205f8282546108d19190611689565b909155505060078054905f6108e583611620565b9190505550336001600160a01b03167f11376d55d5ef08238686cdf3c144de020503676d28f83ec9d94b5d827107edbb856001604051610926929190611638565b60405180910390a290505b92915050565b60036020525f908152604090208054600182015460028301805492936001600160a01b0390921692610968906114c8565b80601f0160208091040260200160405190810160405280929190818152602001828054610994906114c8565b80156109df5780601f106109b6576101008083540402835291602001916109df565b820191905f5260205f20905b8154815290600101906020018083116109c257829003601f168201915b505050506003830154600484015460058501546006909501549394919390925060ff808316926101009004169088565b5f808263ffffffff1611610a655760405162461bcd60e51b815260206004820152601760248201527f416d6f756e74206d75737420626520706f73697469766500000000000000000060448201526064016104fd565b5f835111610aa45760405162461bcd60e51b815260206004820152600c60248201526b24b73b30b634b2103830b4b960a11b60448201526064016104fd565b6007546040805160e0810182528281525f602080830182815233848601908152606085018a815263ffffffff8a1660808701524260a0870152600160c0870181905288865260049094529590932084518155905191810180546001600160a01b039384166001600160a01b031991821617909155925160028201805491909316931692909217905591519091906003820190610b40908261154c565b506080820151600482015560a082015160058083019190915560c0909201516006909101805460ff1916911515919091179055335f908152602091909152604090819020905163ffffffff85169190610b9a90879061166e565b90815260200160405180910390205410610bf657335f9081526005602052604090819020905163ffffffff85169190610bd490879061166e565b90815260200160405180910390205f828254610bf0919061165b565b90915550505b60078054905f610c0583611620565b9190505550336001600160a01b03167f11376d55d5ef08238686cdf3c144de020503676d28f83ec9d94b5d827107edbb855f604051610926929190611638565b6001600160a01b0382165f908152600560205260408082209051610c6a90849061166e565b908152602001604051809103902054905092915050565b5f81815260036020526040812060018101546005820154600683015460028401805460609587958695869592946001600160a01b0390921693919260ff8083169361010090930416918490610cd5906114c8565b80601f0160208091040260200160405190810160405280929190818152602001828054610d01906114c8565b8015610d4c5780601f10610d2357610100808354040283529160200191610d4c565b820191905f5260205f20905b815481529060010190602001808311610d2f57829003601f168201915b50505050509350955095509550955095505091939590929450565b5f6001600754610728919061165b565b5f546001600160a01b03163314610dd05760405162461bcd60e51b815260206004820152600e60248201527f4e6f7420617574686f72697a656400000000000000000000000000000000000060448201526064016104fd565b60018054905f610ddf83611620565b909155505042600255565b5f818152600360205260409020610e0260024261169c565b5f03611172576007546040805160e081019091528181526005830154602082019060ff16610e30575f610e3f565b60018401546001600160a01b03165b6001600160a01b03168152600584015460209091019060ff16610e6f5760018401546001600160a01b0316610e71565b5f5b6001600160a01b03168152602001836002018054610e8e906114c8565b80601f0160208091040260200160405190810160405280929190818152602001828054610eba906114c8565b8015610f055780601f10610edc57610100808354040283529160200191610f05565b820191905f5260205f20905b815481529060010190602001808311610ee857829003601f168201915b505050918352505060038481015460208084019190915242604080850191909152600160609485018190525f87815260048452829020865181559286015190830180546001600160a01b03199081166001600160a01b03938416179091559186015160028401805490931691161790559183015190820190610f87908261154c565b506080820151600482015560a082015160058083019190915560c0909201516006909101805460ff191691151591909117905582015460ff161561101e57600382015460018301546001600160a01b03165f90815260056020526040908190209051610ff79060028601906116bb565b90815260200160405180910390205f8282546110139190611689565b909155506110b89050565b600382015460018301546001600160a01b03165f908152600560205260409081902090516110509060028601906116bb565b908152602001604051809103902054106110b857600382015460018301546001600160a01b03165f908152600560205260409081902090516110969060028601906116bb565b90815260200160405180910390205f8282546110b2919061165b565b90915550505b60058201805461ff00191661010017905560078054905f6110d883611620565b9091555050600582015460ff166110fc5760018201546001600160a01b03166110fe565b5f5b60058301546001600160a01b03919091169060ff1661111d575f61112c565b60018301546001600160a01b03165b6001600160a01b0316827ff73f5ab19a61ba54d708a48deffd5928c9dc39f3bf6260873115fa0a35e42baf85600201604051611168919061172d565b60405180910390a4505b5050565b634e487b7160e01b5f52604160045260245ffd5b5f82601f830112611199575f80fd5b813567ffffffffffffffff808211156111b4576111b4611176565b604051601f8301601f19908116603f011681019082821181831017156111dc576111dc611176565b816040528381528660208588010111156111f4575f80fd5b836020870160208301375f602085830101528094505050505092915050565b5f8060408385031215611224575f80fd5b82356001600160a01b038116811461123a575f80fd5b9150602083013567ffffffffffffffff811115611255575f80fd5b6112618582860161118a565b9150509250929050565b5f6020828403121561127b575f80fd5b5035919050565b5f5b8381101561129c578181015183820152602001611284565b50505f910152565b5f81518084526112bb816020860160208601611282565b601f01601f19169290920160200192915050565b8781525f6001600160a01b03808916602084015280881660408401525060e0606083015261130060e08301876112a4565b60808301959095525060a0810192909252151560c090910152949350505050565b5f6001600160a01b03808816835280871660208401525060a0604083015261134c60a08301866112a4565b931515606083015250608001529392505050565b803563ffffffff81168114611373575f80fd5b919050565b5f805f806080858703121561138b575f80fd5b843567ffffffffffffffff8111156113a1575f80fd5b6113ad8782880161118a565b945050602085013580151581146113c2575f80fd5b92506113d060408601611360565b91506113de60608601611360565b905092959194509250565b5f80604083850312156113fa575f80fd5b823567ffffffffffffffff811115611410575f80fd5b61141c8582860161118a565b92505061142b60208401611360565b90509250929050565b5f6101008a83526001600160a01b038a16602084015280604084015261145c8184018a6112a4565b60608401989098525050608081019490945291151560a0840152151560c083015260e0909101529392505050565b6001600160a01b038616815260a060208201525f6114ab60a08301876112a4565b941515604083015250911515606083015260809091015292915050565b600181811c908216806114dc57607f821691505b6020821081036114fa57634e487b7160e01b5f52602260045260245ffd5b50919050565b601f82111561154757805f5260205f20601f840160051c810160208510156115255750805b601f840160051c820191505b81811015611544575f8155600101611531565b50505b505050565b815167ffffffffffffffff81111561156657611566611176565b61157a8161157484546114c8565b84611500565b602080601f8311600181146115ad575f84156115965750858301515b5f19600386901b1c1916600185901b178555611604565b5f85815260208120601f198616915b828110156115db578886015182559484019460019091019084016115bc565b50858210156115f857878501515f19600388901b60f8161c191681555b505060018460011b0185555b505050505050565b634e487b7160e01b5f52601160045260245ffd5b5f600182016116315761163161160c565b5060010190565b604081525f61164a60408301856112a4565b905082151560208301529392505050565b818103818111156109315761093161160c565b5f825161167f818460208701611282565b9190910192915050565b808201808211156109315761093161160c565b5f826116b657634e487b7160e01b5f52601260045260245ffd5b500690565b5f8083546116c8816114c8565b600182811680156116e057600181146116f557611721565b60ff1984168752821515830287019450611721565b875f526020805f205f5b858110156117185781548a8201529084019082016116ff565b50505082870194505b50929695505050505050565b5f60208083525f845461173f816114c8565b806020870152604060018084165f8114611760576001811461177c576117a9565b60ff19851660408a0152604084151560051b8a010195506117a9565b895f5260205f205f5b858110156117a05781548b8201860152908301908801611785565b8a016040019650505b50939897505050505050505056fea164736f6c6343000818000a",
  "linkReferences": {},
  "deployedLinkReferences": {}
}